:100000000C945E000C9486000C9486000C94860080
:100010000C9486000C9486000C9486000C94860048
:100020000C9486000C9486000C9486000C94860038
:100030000C9486000C9486000C9486000C94860028
:100040000C9484040C9486000C9486000C94860016
:100050000C9486000C9486000C9486000C94860008
:100060000C9486000C948600000000080002010039
:100070000003040700000000000000000000000072
:10008000250028002B0000000000240027002A0083
:10009000040404040404040402020202020203032E
:1000A0000303030301020408102040800102040836
:1000B0001020010204081020B508E70911241FBE12
:1000C000CFEFD8E0DEBFCDBF11E0A0E0B1E0E0EAC5
:1000D000F9E102C005900D92AE30B107D9F721E0E9
:1000E000AEE0B1E001C01D92A438B207E1F710E024
:1000F000CDE5D0E004C02197FE010E94B60ACC35C0
:10010000D107C9F70E9484060C94C30C0C9400001C
:1001100090E0FC01EC55FF4F2491FC01E057FF4FAC
:100120008491882399F090E0880F991FFC01EA5789
:10013000FF4FA591B491FC01E458FF4F8591949134
:100140008FB7F894EC91E22BEC938FBF08958E302B
:1001500008F08E508770806480937C0080917A00D4
:10016000806480937A0080917A0086FDFCCF809134
:1001700078002091790090E0922B08953FB7F89491
:1001800080910F0190911001A0911101B091120185
:1001900026B5A89B05C02F3F19F00196A11DB11DE2
:1001A0003FBFBA2FA92F982F8827820F911DA11D1D
:1001B000B11DBC01CD0142E0660F771F881F991F5A
:1001C0004A95D1F708958F929F92AF92BF92CF92A6
:1001D000DF92EF92FF92811520E492075CF4823067
:1001E000910588F1880F991F880F991F059701972E
:1001F000F1F729C068EE73E00E94870A6B01770F60
:10020000EE08FF080E94BE004B015C010E94BE0088
:10021000DC01CB0188199909AA09BB09883E9340E2
:10022000A105B10558F081E0C81AD108E108F1082C
:1002300028EE820E23E0921EA11CB11CC114D10431
:10024000E104F10419F7FF90EF90DF90CF90BF9099
:10025000AF909F908F90089590E0FC01E859FF4F78
:100260003491FC01EC55FF4F2491FC01E057FF4F06
:10027000E491EE2309F43BC0332339F1333091F09C
:1002800038F43130A9F0323001F584B58F7D12C0D9
:10029000373091F03830A1F03430B9F480918000DB
:1002A0008F7D03C0809180008F77809380000DC088
:1002B00084B58F7784BD09C08091B0008F7703C06B
:1002C0008091B0008F7D8093B000F0E0EE0FFF1FB3
:1002D000E458FF4FA591B4918FB7F894EC91611158
:1002E00003C020952E2301C02E2B2C938FBF089581
:1002F000CF93C82F60915D01809129010E942C014C
:1003000060915D0180912B010E942C0160915D0143
:1003100080912D010E942C0160915D0180912F013F
:100320000E942C0160915D01809131010E942C019D
:1003300060915D01809133010E942C0160915D010B
:10034000809135010E942C01CD32A1F0C83FC1F44B
:1003500060915B01809129010E942C0160915B01F9
:1003600080912B010E942C0160915B0180913301EF
:100370000E942C0160915B01809135010E942C014B
:1003800080ED8C0F8A3038F48C2F0C2E000C990BDA
:10039000C0970E9416058FE98C0F8A3108F4C0526D
:1003A000C13439F460915B01809129010E942C01D4
:1003B00052C0C23429F460915B0180912D0120C0AC
:1003C000C33429F460915B0180912901D6C0C43403
:1003D00089F460915B0180912B010E942C01609156
:1003E0005B0180912D010E942C0160915B01809145
:1003F0002F0158C0C53439F460915B018091290107
:100400000E942C0197C0C63429F460915B01809151
:10041000290194C0C73429F460915B0180912901BE
:10042000A6C0C834C1F0C93409F4AFC0CA3489F4D5
:1004300060915B0180912B010E942C0160915B0116
:1004400080912D010E942C0160915B0180912F0110
:100450001CC0CB3459F460915B0180912B010E9448
:100460002C0160915B0180912D0168C0CC3409F4AE
:1004700086C0CD3489F460915B01809129010E948E
:100480002C0160915B0180912D010E942C016091F3
:100490005B018091310183C0CE3439F460915B01FE
:1004A00080912D010E942C012BC0CF3439F4609132
:1004B0005B01809129010E942C0155C0C03559F47F
:1004C00060915B01809129010E942C0160915B0188
:1004D00080912B0133C0C13589F460915B0180911B
:1004E00029010E942C0160915B0180912B010E94E7
:1004F0002C0160915B0180912D0126C0C23529F449
:1005000060915B018091310125C0C33589F4609110
:100510005B01809129010E942C0160915B01809117
:100520002D010E942C0160915B0180912F010CC074
:10053000C435B9F460915B0180912F010E942C01B8
:1005400060915B01809131010E942C0160915B01FF
:10055000809133010E942C0160915B0180913501F3
:100560001EC0C535F9F460915B0180912B010E949A
:100570002C0160915B0180912D010E942C01609102
:100580005B0180912F010E942C0160915B018091A1
:1005900031010E942C0160915B01809133010E9426
:1005A0002C0173C0C63589F460915B0180912D01E7
:1005B0000E942C0160915B0180912F010E942C010F
:1005C00060915B01809131015DC0C73589F4609114
:1005D0005B0180912B010E942C0160915B01809155
:1005E0002F010E942C0160915B01809133014AC070
:1005F000C83589F460915B0180912B010E942C0128
:1006000060915B0180912D010E942C0160915B0142
:100610008091310112C0C935B9F460915B018091BC
:100620002B010E942C0160915B0180912D010E94A1
:100630002C0160915B0180912F010E942C0160913F
:100640005B018091330118C0CA35F9F460915B01F8
:10065000809129010E942C0160915B0180912B0106
:100660000E942C0160915B0180912F010E942C015E
:1006700060915B01809131010E942C0160915B01CE
:1006800080913501CF910C942C01CF9108950F9357
:100690001F93CF93DF93EC0100E010E08E8D9F8DD0
:1006A0000817190774F4C801880F991FEC8DFD8D88
:1006B000E80FF91F68A980810E942C010F5F1F4F6E
:1006C000EDCF6CA988810E942C016CA98A810E94BF
:1006D0002C016CA98C810E942C016CA98E810E9436
:1006E0002C016CA988850E942C016CA98A850E9426
:1006F0002C016CA98C850E942C018E859F858F3FD3
:100700002FEF920719F06CA90E942C018A8D9B8D06
:100710008F3F2FEF920739F068A9DF91CF911F919A
:100720000F910C942C01DF91CF911F910F9108959F
:100730004F925F926F927F928F929F92AF92BF92F1
:10074000CF92DF92EF92FF920F931F93CF93DF939D
:100750004B015C018091630190916401019609F065
:10076000B3C00091470110914801E1E0F0E0412C55
:10077000512C32014394AAE0B0E0A30192010E94FF
:100780000C0AE017F10724F42B013C013196F3CF5A
:10079000DC01CB010197A109B10988159905AA05CA
:1007A000BB0574F0C12CD12C7601C394C418D508B4
:1007B000E608F7088C149D04AE04BF042CF002C0B8
:1007C0004C015D0175016401F7FE0CC0F094E094EA
:1007D000D094C094C11CD11CE11CF11CAA24A39488
:1007E000B12C02C0A12CB12CE80121974E01880C3C
:1007F000991C9AE0492E512C612C712CD7FD73C0A5
:1008000089E291E00E944703E0914501F0914601A1
:10081000E80DF91D6091570180810E942C01C114DF
:10082000D104E104F10459F4C017D10744F48091D4
:100830004701909148010197C817D90751F4C701A2
:10084000B601A30192010E94ED09CB010E94160599
:100850000CC0A114B10431F08DE20E947801A12CEA
:10086000B12C03C080E20E9478010C171D0731F4FF
:1008700060915B01809137010E942C01C701B60194
:10088000A30192010E94ED0969017A0180914D0155
:1008900090914E01009711F00E94E30080E20E94C7
:1008A000780160915D01809137010E942C01809157
:1008B000510190915201009711F00E94E30021979D
:1008C00082E0881A91089ACF89E680937901C50160
:1008D000B4010E94CE046093710170937201809301
:1008E000730190937401DF91CF911F910F91FF904D
:1008F000EF90DF90CF90BF90AF909F908F907F90C0
:100900006F905F904F9008951F920F920FB60F92C5
:1009100011242F933F938F939F93AF93BF93809115
:10092000130190911401A0911501B091160130911D
:100930000E0123E0230F2D3720F40196A11DB11DD8
:1009400005C026E8230F0296A11DB11D20930E01BC
:100950008093130190931401A0931501B093160195
:1009600080910F0190911001A0911101B09112019D
:100970000196A11DB11D80930F0190931001A093CA
:100980001101B0931201BF91AF919F918F913F914F
:100990002F910F900FBE0F901F9018958F929F92DE
:1009A000AF92BF92CF92DF92EF92FF92CF93DF93FD
:1009B0004B015C01C0914701D0914801E1E0F0E0BA
:1009C000C12CD12C7601C394AAE0B0E0A701960116
:1009D0000E940C0AEC17FD0724F46B017C01319690
:1009E000F3CF6150710981099109681579058A056C
:1009F0009B058CF081E090E0A0E0B0E0BC01CD016F
:100A00006C197D098E099F0986169706A806B906F6
:100A100014F0C501B401DF91CF91FF90EF90DF900A
:100A2000CF90BF90AF909F908F900895CF93DF931A
:100A3000EC0160915D01809129010E942C0160917F
:100A40005D0180912B010E942C0160915D018091DC
:100A50002D010E942C0160915D0180912F010E9467
:100A60002C0160915D01809131010E942C01609107
:100A70005D01809133010E942C0160915D018091A4
:100A800035010E942C01C130D10559F460915B0100
:100A900080912B010E942C0160915B0180912D01BE
:100AA0001FC0C230D105F9F460915B01809129012A
:100AB0000E942C0160915B0180912B010E942C010E
:100AC00060915B01809135010E942C0160915B0176
:100AD000809131010E942C0160915B0180912F0176
:100AE0000E942C0160C0C330D105F9F460915B0114
:100AF000809129010E942C0160915B0180912B0162
:100B00000E942C0160915B01809135010E942C01B3
:100B100060915B0180912D010E942C0160915B012D
:100B200080912F010E942C015EC0C430D105C9F410
:100B300060915B01809133010E942C0160915B0107
:100B4000809135010E942C0160915B0180912B0105
:100B50000E942C0160915B0180912D010E942C016B
:100B600056C0C530D105F9F460915B01809129012F
:100B70000E942C0160915B01809133010E942C0145
:100B800060915B01809135010E942C0160915B01B5
:100B900080912D010E942C0160915B0180912F01B9
:100BA0000E942C0186C0C630D105E9F460915B013A
:100BB000809129010E942C0160915B018091330199
:100BC0000E942C0160915B01809131010E942C01F7
:100BD00060915B0180912F010E942C0160915B016B
:100BE00080912D0139C0C730D10589F460915B0136
:100BF000809129010E942C0160915B0180912B0161
:100C00000E942C0160915B0180912D0176C0C8305B
:100C1000D10549F560915B01809129010E942C0169
:100C200060915B0180912B010E942C0160915B011E
:100C300080912D010E942C0160915B0180912F0118
:100C40000E942C0160915B01809131010E942C0176
:100C500060915B01809133010E942C0160915B01E6
:100C6000809135014AC0C930D10519F560915B0109
:100C7000809135010E942C0160915B0180913301CC
:100C80000E942C0160915B01809129010E942C013E
:100C900060915B0180912B010E942C0160915B01AE
:100CA00080912D010E942C0160915B0180912F01A8
:100CB00024C0CD2B31F560915B01809129010E9408
:100CC0002C0160915B0180912B010E942C016091AD
:100CD0005B0180912D010E942C0160915B0180914C
:100CE0002F010E942C0160915B01809131010E94D3
:100CF0002C0160915B0180913301DF91CF910C94C5
:100D00002C01DF91CF910895CF93DF93CDB7DEB75C
:100D100028970FB6F894DEBF0FBECDBF789484B588
:100D2000826084BD84B5816084BD85B5826085BDE7
:100D300085B5816085BD80916E00816080936E0075
:100D40001092810080918100826080938100809167
:100D50008100816080938100809180008160809318
:100D600080008091B10084608093B1008091B000D8
:100D700081608093B00080917A00846080937A00D3
:100D800080917A00826080937A0080917A008160FD
:100D900080937A0080917A00806880937A00109224
:100DA000C10080E091E0909346018093450182E08C
:100DB00090E0909348018093470100E010E080911B
:100DC000470190914801081719077CF4C801880F62
:100DD000991FE0914501F0914601E80FF91F8081CC
:100DE0000E9488000F5F1F4FEACF89E291E00E94C6
:100DF000470300914701109148019801012E000C12
:100E0000440B550B60E1862E67E2962EA12CB12C87
:100E1000C501B4010E94ED0969017A018091430185
:100E200090914401019669F098012F5F3F4F032E86
:100E3000000C440B550BC501B4010E94ED0969017A
:100E40007A01C0924901D0924A01E0924B01F0929E
:100E50004C01A0915501B0915601A70196010E9445
:100E6000170A24E630E040E050E00E94ED092093AC
:100E70004D0130934E0140934F0150935001C21ADF
:100E8000D30AE40AF50AC0925101D0925201E092CD
:100E90005301F09254018091630190916401019695
:100EA00009F45DC0F894C0904D01D0904E01E090DF
:100EB0004F01F090500190E1492E512C612C712C82
:100EC000C701B601A30192010E94ED09DA01C9012F
:100ED0000197A109B1098093690190936A01A093D8
:100EE0006B01B0936C018090510190905201A090E1
:100EF0005301B0905401C501B401A30192010E94B5
:100F0000ED09DA01C9010197A109B10980936D01C9
:100F100090936E01A0936F01B0937001CD28CE28FD
:100F2000CF2841F41092690110926A0110926B016E
:100F300010926C0189288A288B2841F410926D0147
:100F400010926E0110926F01109270011092650163
:100F500010926601109267011092680178941092C5
:100F600058011092570181E090E090935A018093CC
:100F7000590190935C0180935B0110925E01109285
:100F80005D016091040170910501072E000C880B32
:100F9000990B0E9498032FB7F894809113019091B8
:100FA0001401A0911501B09116012FBF8093170174
:100FB00090931801A0931901B0931A018CE00E943C
:100FC00088008DE00E94880060E08CE00E942C0187
:100FD00060E08DE00E942C0144244A9483E0582E66
:100FE000612C712C80E10E94A70024E130E0DC013B
:100FF0000E949B0AA30192010E94ED09DA01C90136
:101000000F96A11DB11D89839A83AB83BC83A981EF
:10101000BA81BE83AD8390930501809304018EE075
:101020000E94A70024E130E0DC010E949B0AA3019A
:1010300092010E94ED0969017A01BFE0CB0ED11C3B
:10104000E11CF11C1601D0922601C09225018FE00F
:101050000E94A70025E430E0DC010E949B0AA30166
:1010600092010E94ED0949015A01EEE18E0E911C98
:10107000A11CB11CC4019092220180922101860121
:101080000250110910932401009323012C5E3F4F5D
:1010900038872F833093200120931F0120911D0159
:1010A00030911E012C153D0531F0A2E3B0E0B09364
:1010B0002801A093270120911B0130911C012817C2
:1010C000390731F0E2E3F0E0F0932801E0932701E3
:1010D000D0921E01C0921D0190921C0180921B01B2
:1010E0002D813E812215330524F060E08CE00E94C2
:1010F0002C018D819E810817190724F061E08CE096
:101100000E942C0197E489169104A104B10424F4EF
:1011100060E08DE00E942C012F8138852634310556
:1011200024F061E08DE00E942C01009127011091D4
:101130002801101611065CF4C701B6010E9498033D
:1011400001501109109328010093270106C06981FD
:101150007A818B819C810E94980380E090E0892BAA
:1011600009F440CF0E9400003DCF0F931F93CF930F
:10117000DF9310927B0110927A0110927D01109200
:101180007C0110927F0110927E0161E070E080E0AE
:1011900090E00E94E90B009791F090937B0180937F
:1011A0007A0110927D0110927C0120917E01309194
:1011B0007F01232B09F002C1FC011082FFC0809146
:1011C0007A0190917B01009711F00E94510B1092CF
:1011D0007B0110927A0110927F0110927E01109291
:1011E0007D0110927C0101E010E010935801009302
:1011F000570110925A011092590110925C011092FD
:101200005B0110935E0100935D018BE090E0909391
:101210002A01809329018AE090E090932C01809329
:101220002B0189E090E090932E0180932D0188E0BE
:1012300090E09093300180932F0187E090E09093AD
:1012400032018093310186E090E0909334018093E5
:10125000330185E090E09093360180933501CFEF24
:10126000DFEFD0933801C09337018BE00E948800F4
:1012700080912B010E94880080912D010E9488009E
:1012800080912F010E948800809131010E94880086
:10129000809133010E948800809135010E9488006E
:1012A000109248011092470180915D0190915E017A
:1012B00090933A018093390190933C0180933B01D4
:1012C000D0933E01C0933D01D0934001C0933F01B4
:1012D000D0934201C0934101D0934401C093430194
:1012E0001092490110924A0110924B0110924C0148
:1012F00010924D0110924E0110924F011092500128
:101300001092510110925201109253011092540107
:1013100084E690E09093560180935501109260010D
:1013200010925F011093620100936101D0936401F8
:10133000C0936301109265011092660110926701DB
:10134000109268011092690110926A0110926B016B
:1013500010926C0110926D0110926E0110926F014B
:10136000109270011092710110927201109273012B
:10137000109274011092760110927501109278010A
:101380001092770180E28093790189E291E00E94D6
:101390004703809125019091260190931E0180932F
:1013A0001D01809121019091220190931C01809355
:1013B0001B01DF91CF911F910F91089510927F0132
:1013C00010927E016CE071E00E94BC0C0CCF809109
:1013D0007A0190917B010C94510B052E97FB1EF422
:1013E00000940E94040A57FD07D00E94560A07FC89
:1013F00003D04EF40C94040A5095409530952195F5
:101400003F4F4F4F5F4F0895909580957095619530
:101410007F4F8F4F9F4F08950E94780AA59F900D90
:10142000B49F900DA49F800D911D11240895B7FFC6
:101430000C940C0A0E940C0A821B930B08952F92A5
:101440003F924F925F926F927F928F929F92AF9254
:10145000BF92CF92DF92EF92FF920F931F93CF93A1
:10146000DF93CDB7DEB7CA1BDB0B0FB6F894DEBF38
:101470000FBECDBF09942A88398848885F846E845E
:101480007D848C849B84AA84B984C884DF80EE80A8
:10149000FD800C811B81AA81B981CE0FD11D0FB6B1
:1014A000F894DEBF0FBECDBFED010895A1E21A2E64
:1014B000AA1BBB1BFD010DC0AA1FBB1FEE1FFF1FF8
:1014C000A217B307E407F50720F0A21BB30BE40B48
:1014D000F50B661F771F881F991F1A9469F760958F
:1014E0007095809590959B01AC01BD01CF01089549
:1014F000A29FB001B39FC001A39F700D811D112455
:10150000911DB29F700D811D1124911D089597FBAF
:10151000072E16F4009407D077FD09D00E94A20A86
:1015200007FC05D03EF4909581959F4F08957095E6
:1015300061957F4F08950E94780AB7FF0895821B36
:10154000930B0895AA1BBB1B51E107C0AA1FBB1F29
:10155000A617B70710F0A61BB70B881F991F5A953F
:10156000A9F780959095BC01CD010895EE0FFF1F5E
:101570000590F491E02D0994CF93DF93823091058B
:1015800010F482E090E0E0918201F091830120E08C
:1015900030E0C0E0D0E0309711F140815181481730
:1015A0005907C0F04817590761F482819381209749
:1015B00019F09B838A832BC09093830180938201CF
:1015C00026C02115310519F04217530718F49A0166
:1015D000BE01DF01EF010280F381E02DDCCF211598
:1015E000310509F1281B390B2430310590F412968E
:1015F0008D919C9113976115710521F0FB019383E7
:10160000828304C09093830180938201FD0132960E
:1016100044C0FD01E20FF31F8193919322503109E1
:101620002D933C933AC02091800130918101232B6E
:1016300041F42091080130910901309381012093F8
:10164000800120910601309107012115310541F4F7
:101650002DB73EB740910A0150910B01241B350B69
:10166000E0918001F0918101E217F307A0F42E1BB5
:101670003F0B2817390778F0AC014E5F5F4F2417F6
:10168000350748F04E0F5F1F509381014093800152
:101690008193919302C0E0E0F0E0CF01DF91CF9120
:1016A00008950F931F93CF93DF93009709F48CC095
:1016B000FC01329713821282009182011091830102
:1016C0000115110581F420813181820F931F209132
:1016D0008001309181012817390779F5F093810154
:1016E000E093800171C0D80140E050E0AE17BF0721
:1016F00050F412962D913C911397AD0121153105AF
:1017000009F1D901F3CF9D01DA013383228360818E
:101710007181860F971F8217930769F4EC01288166
:101720003981260F371F2E5F3F4F318320838A81F7
:101730009B8193838283452B29F4F0938301E0936B
:10174000820142C01396FC93EE931297ED014991EA
:1017500059919E01240F351FE217F30771F4808120
:101760009181840F951F029611969C938E9382818E
:10177000938113969C938E931297E0E0F0E0D8014A
:1017800012968D919C911397009719F0F8018C0196
:10179000F6CF8D919C9198012E5F3F4F820F931F42
:1017A00020918001309181012817390769F4309721
:1017B00029F4109283011092820102C013821282D6
:1017C0001093810100938001DF91CF911F910F91C0
:1017D0000895A0E0B0E0EFEEFBE00C94230AEC01EA
:1017E000009721F4CB010E94BC0AB8C0FC01E60FAF
:1017F000F71F9C0122503109E217F30708F4ACC02F
:10180000D9010D911C91119706171707B0F00530FB
:10181000110508F49FC0C80104978617970708F4BC
:1018200099C002501109061B170B019311936D9378
:101830007C93CF010E94510B8DC05B01A01AB10AAD
:101840004C01800E911EA0918201B091830140E075
:1018500050E0E12CF12C109709F44AC0A815B90505
:10186000D1F56D907C901197630182E0C80ED11C78
:10187000CA14DB0480F1A3014A195B096A0182E002
:10188000C80ED11C1296BC9012971396AC91B5E07D
:10189000CB16D10440F0B282A38351834083D90197
:1018A0006D937C930AC00E5F1F4FC301800F911F81
:1018B000F90191838083EB2DFA2FE114F10431F0CB
:1018C000D7011396FC93EE93129744C0F0938301D3
:1018D000E09382013FC08D919C9111974817590761
:1018E00008F4AC017D0112960D90BC91A02DB3CFF0
:1018F000809180019091810188159905E1F4461746
:101900005707C8F48091060190910701009741F4B0
:101910008DB79EB740910A0150910B01841B950B26
:10192000E817F907C8F4F0938101E0938001F90109
:10193000718360830FC0CB010E94BC0A7C010097B9
:1019400059F0A801BE010E94B30CCE010E94510BB8
:10195000C70104C0CE0102C080E090E0CDB7DEB781
:10196000EEE00C943F0AFB01DC0102C001900D92F5
:1019700041505040D8F70895FB01DC0101900D92D1
:101980000020E1F7089510E0CDE5D0E004C0FE01AD
:101990000E94B60A2196CE35D107C9F7F894FFCF39
:0E19A000040003001700000084018000000016
:00000001FF
