:100000000C945E000C9486000C9486000C94860080
:100010000C9486000C9486000C9486000C94860048
:100020000C9486000C9486000C9486000C94860038
:100030000C9486000C9486000C9486000C94860028
:100040000C94B5040C9486000C942C020C940602BB
:100050000C9486000C9486000C9486000C94860008
:100060000C9486000C9486000000000024002700F9
:100070002A0000000000250028002B0004040404CE
:100080000404040402020202020203030303030342
:10009000010204081020408001020408102001021F
:1000A00004081020000000080002010000030407FB
:1000B0000000000000000000590A530A11241FBE6E
:1000C000CFEFD8E0DEBFCDBF11E0A0E0B1E0E0E9C6
:1000D000FDE102C005900D92AC31B107D9F722E0E5
:1000E000ACE1B1E001C01D92AD33B207E1F710E021
:1000F000CDE5D0E004C02197FE010E94A90CCC35CB
:10010000D107C9F70E94F2070C94BB0E0C940000B3
:10011000CF92DF92EF92FF920F931F93CF93DF93D3
:100120006C017A018B01C0E0D0E0CE15DF0589F0CB
:10013000D8016D918D01D601ED91FC910190F08176
:10014000E02DC6010995892B11F47E0102C021968C
:10015000ECCFC701DF91CF911F910F91FF90EF90EE
:10016000DF90CF900895FC01918D828D981761F0FA
:10017000828DDF01A80FB11D5D968C91928D9F5FDE
:100180009F73928F90E008958FEF9FEF0895FC0189
:10019000918D828D981731F0828DE80FF11D858D3C
:1001A00090E008958FEF9FEF0895FC01918D228DCF
:1001B000892F90E0805C9F4F821B91098F73992754
:1001C00008958FE291E00E94D50021E0892B09F487
:1001D00020E0822F0895FC01848DDF01A80FB11D5E
:1001E000A35ABF4F2C91848D90E001968F7399276D
:1001F000848FA689B7892C93A089B1898C9180645A
:100200008C93938D848D981306C00288F389E02D1A
:1002100080818F7D80830895EF92FF920F931F93CB
:10022000CF93DF93EC0181E0888F9B8D8C8D9813A9
:1002300005C0E889F989808185FD24C0F62E0B8DE3
:1002400010E00F5F1F4F0F731127E02E8C8DE81207
:100250000CC00FB607FCFACFE889F989808185FFC9
:10026000F5CFCE010E94EB00F1CF8B8DFE01E80FA0
:10027000F11DE35AFF4FF0820B8FEA89FB898081E1
:10028000806207C0EE89FF896083E889F9898081EF
:100290008064808381E090E0DF91CF911F910F9186
:1002A000FF90EF900895CF93DF93EC01888D882322
:1002B000C9F0EA89FB89808185FD05C0A889B989D3
:1002C0008C9186FD0FC00FB607FCF5CF808185FFAE
:1002D000F2CFA889B9898C9185FFEDCFCE010E941C
:1002E000EB00E7CFDF91CF91089580E090E0892B7C
:1002F00029F00E94E10081110C94000008958E30D5
:1003000008F08E508770806480937C0080917A0022
:10031000806480937A0080917A0086FDFCCF809182
:1003200078002091790090E0922B08953FB7F894DF
:1003300080911D0190911E01A0911F01B09120019B
:1003400026B5A89B05C02F3F19F00196A11DB11D30
:100350003FBFBA2FA92F982F8827820F911DA11D6B
:10036000B11DBC01CD0142E0660F771F881F991FA8
:100370004A95D1F708958F929F92AF92BF92CF92F4
:10038000DF92EF92FF92811520E492075CF48230B5
:10039000910588F1880F991F880F991F059701977C
:1003A000F1F729C068EE73E00E947A0C6B01770FB9
:1003B000EE08FF080E9496014B015C010E94960125
:1003C000DC01CB0188199909AA09BB09883E934031
:1003D000A105B10558F081E0C81AD108E108F1087B
:1003E00028EE820E23E0921EA11CB11CC114D10480
:1003F000E104F10419F7FF90EF90DF90CF90BF90E8
:10040000AF909F908F9008950E94A60E1F920F921A
:100410000FB60F9211242F933F934F935F936F93D7
:100420007F938F939F93AF93BF93EF93FF938FE24D
:1004300091E00E94EB00FF91EF91BF91AF919F91EE
:100440008F917F916F915F914F913F912F910F907D
:100450000FBE0F901F9018951F920F920FB60F921C
:1004600011242F938F939F93EF93FF93E0913F017C
:10047000F09140018081E0914501F091460182FDBB
:1004800012C09081809148018F5F8F732091490144
:10049000821751F0E0914801F0E0E15DFE4F958F49
:1004A0008093480101C08081FF91EF919F918F91CE
:1004B0002F910F900FBE0F901F90189590E0FC01A8
:1004C000EC55FF4F3491FC01E057FF4F2491FC01A4
:1004D000E458FF4FE491EE2309F43BC0332339F194
:1004E000333091F038F43130A9F0323001F584B571
:1004F0008F7D12C0373091F03830A1F03430B9F42C
:10050000809180008F7D03C0809180008F778093E1
:1005100080000DC084B58F7784BD09C08091B00084
:100520008F7703C08091B0008F7D8093B000F0E0A2
:10053000EE0FFF1FEE58FF4FA591B4918FB7F894BF
:10054000EC91611103C020952E2301C02E2B2C931A
:100550008FBF0895CF93C82F609116028091E2015A
:100560000E945E02609116028091E4010E945E0288
:10057000609116028091E6010E945E02609116026F
:100580008091E8010E945E02609116028091EA016A
:100590000E945E02609116028091EC010E945E0250
:1005A000609116028091EE010E945E02CD32A1F0B0
:1005B000C83FC1F4609114028091E2010E945E0282
:1005C000609114028091E4010E945E026091140225
:1005D0008091EC010E945E02609114028091EE0114
:1005E0000E945E0280ED8C0F8A3038F48C2F0C2E26
:1005F000000C990BC0970E9484068FE98C0F8A31FA
:1006000008F4C052C13439F4609114028091E201BF
:100610000E945E0252C0C23429F46091140280919B
:10062000E60120C0C33429F4609114028091E201F4
:10063000D6C0C43489F4609114028091E4010E9410
:100640005E02609114028091E6010E945E02609158
:1006500014028091E80158C0C53439F46091140245
:100660008091E2010E945E0297C0C63429F4609135
:1006700014028091E20194C0C73429F460911402FD
:100680008091E201A6C0C834C1F0C93409F4AFC0FA
:10069000CA3489F4609114028091E4010E945E02E0
:1006A000609114028091E6010E945E026091140242
:1006B0008091E8011CC0CB3459F460911402809100
:1006C000E4010E945E02609114028091E60168C01C
:1006D000CC3409F486C0CD3489F460911402809141
:1006E000E2010E945E02609114028091E6010E9484
:1006F0005E02609114028091EA0183C0CE3439F425
:10070000609114028091E6010E945E022BC0CF34FA
:1007100039F4609114028091E2010E945E0255C09A
:10072000C03559F4609114028091E2010E945E028A
:10073000609114028091E40133C0C13589F4609165
:1007400014028091E2010E945E0260911402809185
:10075000E4010E945E02609114028091E60126C0CD
:10076000C23529F4609114028091EA0125C0C33595
:1007700089F4609114028091E2010E945E0260910E
:1007800014028091E6010E945E0260911402809141
:10079000E8010CC0C435B9F4609114028091E801FD
:1007A0000E945E02609114028091EA010E945E0242
:1007B000609114028091EC010E945E02609114022B
:1007C0008091EE011EC0C535F9F46091140280914C
:1007D000E4010E945E02609114028091E6010E9491
:1007E0005E02609114028091E8010E945E026091B5
:1007F00014028091EA010E945E02609114028091CD
:10080000EC010E945E0273C0C63589F46091140247
:100810008091E6010E945E02609114028091E801DD
:100820000E945E02609114028091EA015DC0C735AA
:1008300089F4609114028091E4010E945E0260914B
:1008400014028091E8010E945E026091140280917E
:10085000EC014AC0C83589F4609114028091E4012A
:100860000E945E02609114028091E6010E945E0285
:10087000609114028091EA0112C0C935B9F4609107
:1008800014028091E4010E945E0260911402809142
:10089000E6010E945E02609114028091E8010E94CC
:1008A0005E02609114028091EC0118C0CA35F9F41F
:1008B000609114028091E2010E945E026091140234
:1008C0008091E4010E945E02609114028091E8012F
:1008D0000E945E02609114028091EA010E945E0211
:1008E000609114028091EE01CF910C945E02CF9141
:1008F0000895CF93DF9390E0FC01E057FF4F2491E0
:10090000FC01E458FF4F8491882361F190E0880F47
:10091000991FFC01E859FF4FC591D491FC01EE5895
:10092000FF4FA591B491611109C09FB7F8948881D8
:10093000209582238883EC912E230BC0623061F4D2
:100940009FB7F8943881822F809583238883EC9118
:100950002E2B2C939FBF06C08FB7F894E8812E2BC7
:1009600028838FBFDF91CF9108951F920F920FB60A
:100970000F9211242F933F938F939F93AF93BF9325
:100980008091210190912201A0912301B091240135
:1009900030911C0123E0230F2D3720F40196A11D77
:1009A000B11D05C026E8230F0296A11DB11D20939D
:1009B0001C018093210190932201A0932301B09305
:1009C000240180911D0190911E01A0911F01B09101
:1009D00020010196A11DB11D80931D0190931E0160
:1009E000A0931F01B0932001BF91AF919F918F9170
:1009F0003F912F910F900FBE0F901F9018950F935E
:100A00001F93CF93DF93EC0100E010E08E8D9F8D5C
:100A10000817190774F4C801880F991FEC8DFD8D14
:100A2000E80FF91F68A980810E945E020F5F1F4FC7
:100A3000EDCF6CA988810E945E026CA98A810E9418
:100A40005E026CA98C810E945E026CA98E810E945C
:100A50005E026CA988850E945E026CA98A850E944C
:100A60005E026CA98C850E945E028E859F858F3FF9
:100A70002FEF920719F06CA90E945E028A8D9B8D60
:100A80008F3F2FEF920739F068A9DF91CF911F9127
:100A90000F910C945E02DF91CF911F910F910895F9
:100AA0004F925F926F927F928F929F92AF92BF927E
:100AB000CF92DF92EF92FF920F931F93CF93DF932A
:100AC0004B015C0180911C0290911D02019609F07E
:100AD000B3C00091000210910102E1E0F0E0412C6E
:100AE000512C32014394AAE0B0E0A30192010E948C
:100AF000FF0BE017F10724F42B013C013196F3CFF3
:100B0000DC01CB010197A109B10988159905AA0556
:100B1000BB0574F0C12CD12C7601C394C418D50840
:100B2000E608F7088C149D04AE04BF042CF002C044
:100B30004C015D0175016401F7FE0CC0F094E09476
:100B4000D094C094C11CD11CE11CF11CAA24A39414
:100B5000B12C02C0A12CB12CE80121974E01880CC8
:100B6000991C9AE0492E512C612C712CD7FD73C031
:100B700082EE91E00E94FF04E091FE01F091FF01FE
:100B8000E80DF91D6091100280810E945E02C1147F
:100B9000D104E104F10459F4C017D10744F4809161
:100BA0000002909101020197C817D90751F4C701BB
:100BB000B601A30192010E94E00BCB010E948406C2
:100BC0000CC0A114B10431F08DE20E94AA02A12C44
:100BD000B12C03C080E20E94AA020C171D0731F459
:100BE000609114028091F0010E945E02C701B6017B
:100BF000A30192010E94E00B69017A018091060233
:100C000090910702009711F00E94BB0180E20E94C0
:100C1000AA02609116028091F0010E945E0280910A
:100C20000A0290910B02009711F00E94BB012197DC
:100C300082E0881A91089ACF89E680933202C50132
:100C4000B4010E943C0660932A0270932B028093A9
:100C50002C0290932D02DF91CF911F910F91FF9065
:100C6000EF90DF90CF90BF90AF909F908F907F904C
:100C70006F905F904F9008958F929F92AF92BF9226
:100C8000CF92DF92EF92FF92CF93DF934B015C0103
:100C9000C0910002D0910102E1E0F0E0C12CD12C22
:100CA0007601C394AAE0B0E0A70196010E94FF0B71
:100CB000EC17FD0724F46B017C013196F3CF6150F2
:100CC000710981099109681579058A059B058CF0E0
:100CD00081E090E0A0E0B0E0BC01CD016C197D099D
:100CE0008E099F0986169706A806B90614F0C50155
:100CF000B401DF91CF91FF90EF90DF90CF90BF9044
:100D0000AF909F908F900895CF93DF93EC01609107
:100D100016028091E2010E945E02609116028091AB
:100D2000E4010E945E02609116028091E6010E9439
:100D30005E02609116028091E8010E945E0260915D
:100D400016028091EA010E945E0260911602809173
:100D5000EC010E945E02609116028091EE010E94F9
:100D60005E02C130D10559F4609114028091E40112
:100D70000E945E02609114028091E6011FC0C230A1
:100D8000D105F9F4609114028091E2010E945E02A3
:100D9000609114028091E4010E945E02609114024D
:100DA0008091EE010E945E02609114028091EA013E
:100DB0000E945E02609114028091E8010E945E022E
:100DC00060C0C330D105F9F4609114028091E20152
:100DD0000E945E02609114028091E4010E945E0212
:100DE000609114028091EE010E945E0260911402F3
:100DF0008091E6010E945E02609114028091E801F8
:100E00000E945E025EC0C430D105C9F46091140234
:100E10008091EC010E945E02609114028091EE01CB
:100E20000E945E02609114028091E4010E945E02C1
:100E3000609114028091E6010E945E0256C0C530A6
:100E4000D105F9F4609114028091E2010E945E02E2
:100E5000609114028091EC010E945E026091140284
:100E60008091EE010E945E02609114028091E60181
:100E70000E945E02609114028091E8010E945E026D
:100E800086C0C630D105E9F4609114028091E20178
:100E90000E945E02609114028091EC010E945E0249
:100EA000609114028091EA010E945E026091140236
:100EB0008091E8010E945E02609114028091E60137
:100EC00039C0C730D10589F4609114028091E201E4
:100ED0000E945E02609114028091E4010E945E0211
:100EE000609114028091E60176C0C830D10549F5C1
:100EF000609114028091E2010E945E0260911402EE
:100F00008091E4010E945E02609114028091E601EA
:100F10000E945E02609114028091E8010E945E02CC
:100F2000609114028091EA010E945E0260911402B5
:100F30008091EC010E945E02609114028091EE01AA
:100F40004AC0C930D10519F5609114028091EE01B3
:100F50000E945E02609114028091EC010E945E0288
:100F6000609114028091E2010E945E02609114027D
:100F70008091E4010E945E02609114028091E6017A
:100F80000E945E02609114028091E80124C0CD2B82
:100F900031F5609114028091E2010E945E0260913D
:100FA00014028091E4010E945E026091140280911B
:100FB000E6010E945E02609114028091E8010E94A5
:100FC0005E02609114028091EA010E945E026091CB
:100FD00014028091EC01DF91CF910C945E02DF91BD
:100FE000CF910895789484B5826084BD84B5816082
:100FF00084BD85B5826085BD85B5816085BD8091E4
:101000006E00816080936E0010928100809181005B
:101010008260809381008091810081608093810053
:10102000809180008160809380008091B100846015
:101030008093B1008091B00081608093B000809176
:101040007A00846080937A0080917A008260809335
:101050007A0080917A00816080937A0080917A0092
:10106000806880937A001092C10080E091E09093B4
:10107000FF018093FE0182E090E090930102809353
:101080000002C0E0D0E08091000290910102C817F8
:10109000D9077CF4CE01880F991FE091FE01F091F1
:1010A000FF01E80FF91F61E080810E947904219619
:1010B000EACF82EE91E00E94FF04C0910002D0913D
:1010C00001029E010D2E000C440B550B60E1862E93
:1010D00067E2962EA12CB12CC501B4010E94E00B51
:1010E00069017A018091FC019091FD01019669F0FE
:1010F0009E012F5F3F4F032E000C440B550BC50183
:10110000B4010E94E00B69017A01C0920202D09200
:101110000302E0920402F0920502A0910E02B09147
:101120000F02A70196010E940A0C24E630E040E07D
:1011300050E00E94E00B2093060230930702409398
:10114000080250930902C21AD30AE40AF50AC092AF
:101150000A02D0920B02E0920C02F0920D028091F2
:101160001C0290911D02019609F45DC0F894C09094
:101170000602D0900702E0900802F090090290E188
:10118000892E912CA12CB12CC701B601A501940187
:101190000E94E00BDA01C9010197A109B10980930E
:1011A000220290932302A0932402B0932502409040
:1011B0000A0250900B0260900C0270900D02C30165
:1011C000B201A50194010E94E00BDA01C901019767
:1011D000A109B1098093260290932702A0932802C7
:1011E000B0932902CD28CE28CF2841F410922202B4
:1011F00010922302109224021092250245284628BC
:10120000472841F4109226021092270210922802D9
:101210001092290210921E0210921F0210922002B8
:10122000109221027894109211021092100281E023
:1012300090E0909313028093120290931502809392
:101240001402109217021092160267E170E080E01B
:1012500090E00E9450052FB7F89480912101909161
:101260002201A0912301B09124012FBF8093250179
:1012700090932601A0932701B093280161E08CE0B0
:101280000E94790461E08DE00E94790460E08CE0C6
:101290000E945E0260E08DE00E945E0260E080914C
:1012A000DA010E94790461E08091DA010E945E0215
:1012B0001092DD011092DE011092DF011092E00128
:1012C000E0913F01F091400182E08083E0913B0199
:1012D000F0913C011082E0913D01F0913E018FECD4
:1012E000808310924701E0914301F091440186E030
:1012F0008083E0914101F09142018081806180838F
:10130000E0914101F0914201808188608083E09109
:101310004101F0914201808180688083E091410128
:10132000F091420180818F7D8083CC24CA9483E038
:10133000D82EE12CF12CC2E3D0E08EE00E947F0198
:1013400024E130E0DC010E948E0CA70196010E948E
:10135000E00BDA01C9010F96A11DB11D9093D301D5
:101360008093D2018FE00E947F0125E430E0DC0110
:101370000E948E0CA70196010E94E00B29013A0100
:101380008EE1480E511C611C711CA2015092CF01CC
:101390004092CE018091D2019091D3015C0122E074
:1013A000A21AB108B0922C01A0922B0182010A501E
:1013B000110910932A01009329016091D0017091C5
:1013C000D1016817790721F0D0932E01C0932D0128
:1013D0006091CC017091CD016417750721F0D09315
:1013E0002E01C0932D019093D1018093D001509292
:1013F000CD014092CC01489724F460E08CE00E943B
:101400005E0247E1A416B10424F061E08CE00E9482
:101410005E028091CE019091CF018734910524F432
:1014200060E08DE00E945E020634110524F061E068
:101430008DE00E945E0281E10E947F0120912D01DA
:1014400030912E01813091406CF0121613062CF46D
:101450006091D2017091D3010CC067E170E080E02F
:1014600090E010C0121613064CF46091CE017091FA
:10147000CF01072E000C880B990B04C066E470E0C6
:1014800080E090E00E94500580912D0190912E0106
:10149000181619062CF4019790932E0180932D01B4
:1014A0000E9475014ACF80913302909134020C94CE
:1014B000440D0F931F93CF93DF931092320110923C
:1014C000310188EE93E0A0E0B0E080933301909387
:1014D0003401A0933501B09336018EE091E09093F2
:1014E000300180932F0185EC90E090933C01809334
:1014F0003B0184EC90E090933E0180933D0180ECB1
:1015000090E09093400180933F0181EC90E09093B4
:1015100042018093410182EC90E0909344018093DA
:10152000430186EC90E09093460180934501109230
:1015300048011092490110924A0110924B011092F9
:101540003402109233021092360210923502109239
:1015500038021092370261E070E080E090E00E9473
:10156000DC0D009791F09093340280933302109237
:101570003602109235022091370230913802232B27
:1015800009F015C1FC01108212C1809133029091C3
:101590003402009711F00E94440D10923402109210
:1015A00033021092380210923702109236021092D3
:1015B000350201E010E01093110200931002109226
:1015C000130210921202109215021092140210933C
:1015D0001702009316028BE090E09093E301809352
:1015E000E2018AE090E09093E5018093E40189E0D4
:1015F00090E09093E7018093E60188E090E090937B
:10160000E9018093E80187E090E09093EB018093FB
:10161000EA0186E090E09093ED018093EC0185E093
:1016200090E09093EF018093EE01CFEFDFEFD09346
:10163000F101C093F00161E08BE00E94790461E068
:101640008091E4010E94790461E08091E6010E94AA
:10165000790461E08091E8010E94790461E0809161
:10166000EA010E94790461E08091EC010E94790412
:1016700061E08091EE010E947904109201021092C3
:10168000000280911602909117029093F3018093CB
:10169000F2019093F5018093F401D093F701C09388
:1016A000F601D093F901C093F801D093FB01C093E8
:1016B000FA01D093FD01C093FC0110920202109236
:1016C0000302109204021092050210920602109278
:1016D0000702109208021092090210920A02109258
:1016E0000B0210920C0210920D0284E690E090938F
:1016F0000F0280930E02109219021092180210939A
:101700001B0200931A02D0931D02C0931C02109278
:101710001E0210921F0210922002109221021092BB
:10172000220210922302109224021092250210929B
:10173000260210922702109228021092290210927B
:101740002A0210922B0210922C0210922D0210925B
:101750002F0210922E02109231021092300280E27B
:101760008093320282EE91E00E94FF0482E0809337
:10177000DA0186E18093DB0186E08093DC0181E081
:101780008093E1018091D2019091D3019093D10196
:101790008093D0018091CE019091CF019093CD01A3
:1017A0008093CC01DF91CF911F910F9108951092FA
:1017B0003802109237026AE171E00E94B40EF9CE4D
:1017C000052E97FB1EF400940E94F70B57FD07D0DF
:1017D0000E94490C07FC03D04EF40C94F70B509573
:1017E0004095309521953F4F4F4F5F4F089590950D
:1017F0008095709561957F4F8F4F9F4F08950E9400
:101800006B0CA59F900DB49F900DA49F800D911D12
:1018100011240895B7FF0C94FF0B0E94FF0B821B4D
:10182000930B08952F923F924F925F926F927F9207
:101830008F929F92AF92BF92CF92DF92EF92FF92E0
:101840000F931F93CF93DF93CDB7DEB7CA1BDB0B8C
:101850000FB6F894DEBF0FBECDBF09942A88398831
:1018600048885F846E847D848C849B84AA84B98438
:10187000C884DF80EE80FD800C811B81AA81B98144
:10188000CE0FD11D0FB6F894DEBF0FBECDBFED0158
:101890000895A1E21A2EAA1BBB1BFD010DC0AA1FB1
:1018A000BB1FEE1FFF1FA217B307E407F50720F0C9
:1018B000A21BB30BE40BF50B661F771F881F991F44
:1018C0001A9469F760957095809590959B01AC018D
:1018D000BD01CF010895A29FB001B39FC001A39F96
:1018E000700D811D1124911DB29F700D811D112459
:1018F000911D089597FB072E16F4009407D077FDED
:1019000009D00E94950C07FC05D03EF49095819576
:101910009F4F0895709561957F4F08950E946B0CBD
:10192000B7FF0895821B930B0895AA1BBB1B51E1BF
:1019300007C0AA1FBB1FA617B70710F0A61BB70B3F
:10194000881F991F5A95A9F780959095BC01CD01E4
:101950000895EE0FFF1F0590F491E02D0994CF93A9
:10196000DF938230910510F482E090E0E0913B0239
:10197000F0913C0220E030E0C0E0D0E0309711F17F
:101980004081518148175907C0F04817590761F441
:1019900082819381209719F09B838A832BC0909337
:1019A0003C0280933B0226C02115310519F04217F5
:1019B000530718F49A01BE01DF01EF010280F381A1
:1019C000E02DDCCF2115310509F1281B390B24301E
:1019D000310590F412968D919C91139761157105C4
:1019E00021F0FB019383828304C090933C02809397
:1019F0003B02FD01329644C0FD01E20FF31F8193CB
:101A00009193225031092D933C933AC02091390291
:101A100030913A02232B41F42091060130910701C5
:101A200030933A022093390220910401309105014C
:101A30002115310541F42DB73EB740910801509171
:101A40000901241B350BE0913902F0913A02E217AB
:101A5000F307A0F42E1B3F0B2817390778F0AC01D1
:101A60004E5F5F4F2417350748F04E0F5F1F5093AE
:101A70003A02409339028193919302C0E0E0F0E092
:101A8000CF01DF91CF9108950F931F93CF93DF93F1
:101A9000009709F48CC0FC013297138212820091E6
:101AA0003B0210913C020115110581F42081318126
:101AB000820F931F2091390230913A02281739077B
:101AC00079F5F0933A02E093390271C0D80140E011
:101AD00050E0AE17BF0750F412962D913C9113972A
:101AE000AD012115310509F1D901F3CF9D01DA01CD
:101AF0003383228360817181860F971F821793073A
:101B000069F4EC0128813981260F371F2E5F3F4F82
:101B1000318320838A819B8193838283452B29F49F
:101B2000F0933C02E0933B0242C01396FC93EE9389
:101B30001297ED01499159919E01240F351FE2172B
:101B4000F30771F480819181840F951F029611969D
:101B50009C938E938281938113969C938E9312977C
:101B6000E0E0F0E0D80112968D919C9113970097D8
:101B700019F0F8018C01F6CF8D919C9198012E5FA0
:101B80003F4F820F931F2091390230913A0228175C
:101B9000390769F4309729F410923C0210923B0205
:101BA00002C01382128210933A0200933902DF912D
:101BB000CF911F910F910895A0E0B0E0E2EEFDE01B
:101BC0000C94160CEC01009721F4CB010E94AF0C91
:101BD000B8C0FC01E60FF71F9C0122503109E21743
:101BE000F30708F4ACC0D9010D911C9111970617A9
:101BF0001707B0F00530110508F49FC0C80104971D
:101C00008617970708F499C002501109061B170B95
:101C1000019311936D937C93CF010E94440D8DC06D
:101C20005B01A01AB10A4C01800E911EA0913B02EB
:101C3000B0913C0240E050E0E12CF12C109709F407
:101C40004AC0A815B905D1F56D907C901197630134
:101C500082E0C80ED11CCA14DB0480F1A3014A192A
:101C60005B096A0182E0C80ED11C1296BC901297E3
:101C70001396AC91B5E0CB16D10440F0B282A383A9
:101C800051834083D9016D937C930AC00E5F1F4F2F
:101C9000C301800F911FF90191838083EB2DFA2FEF
:101CA000E114F10431F0D7011396FC93EE931297EF
:101CB00044C0F0933C02E0933B023FC08D919C9165
:101CC00011974817590708F4AC017D0112960D9041
:101CD000BC91A02DB3CF8091390290913A02881522
:101CE0009905E1F446175707C8F4809104019091D3
:101CF0000501009741F48DB79EB7409108015091BE
:101D00000901841B950BE817F907C8F4F0933A0210
:101D1000E0933902F901718360830FC0CB010E9407
:101D2000AF0C7C01009759F0A801BE010E94AB0ED8
:101D3000CE010E94440DC70104C0CE0102C080E064
:101D400090E0CDB7DEB7EEE00C94320C81E090E08D
:101D5000F8940C94BB0EFB01DC0102C001900D92C3
:101D600041505040D8F70895FB01DC0101900D92DD
:101D70000020E1F7089510E0CDE5D0E004C0FE01B9
:101D80000E94A90C2196CE35D107C9F7F894FFCF50
:101D90000400030000003D028000000000000C0170
:0C1DA0008800D500B300C700530100000C
:107E0000112484B714BE81FFF0D085E080938100F7
:107E100082E08093C00088E18093C10086E0809377
:107E2000C20080E18093C4008EE0C9D0259A86E02C
:107E300020E33CEF91E0309385002093840096BBD3
:107E4000B09BFECF1D9AA8958150A9F7CC24DD24C4
:107E500088248394B5E0AB2EA1E19A2EF3E0BF2EE7
:107E6000A2D0813461F49FD0082FAFD0023811F036
:107E7000013811F484E001C083E08DD089C08234E0
:107E800011F484E103C0853419F485E0A6D080C0E4
:107E9000853579F488D0E82EFF2485D0082F10E0AE
:107EA000102F00270E291F29000F111F8ED06801E7
:107EB0006FC0863521F484E090D080E0DECF843638
:107EC00009F040C070D06FD0082F6DD080E0C81688
:107ED00080E7D80618F4F601B7BEE895C0E0D1E017
:107EE00062D089930C17E1F7F0E0CF16F0E7DF06D8
:107EF00018F0F601B7BEE89568D007B600FCFDCFD4
:107F0000A601A0E0B1E02C9130E011968C91119780
:107F100090E0982F8827822B932B1296FA010C0160
:107F200087BEE89511244E5F5F4FF1E0A038BF0790
:107F300051F7F601A7BEE89507B600FCFDCF97BE46
:107F4000E89526C08437B1F42ED02DD0F82E2BD052
:107F50003CD0F601EF2C8F010F5F1F4F84911BD097
:107F6000EA94F801C1F70894C11CD11CFA94CF0C13
:107F7000D11C0EC0853739F428D08EE10CD085E9AC
:107F80000AD08FE07ACF813511F488E018D01DD067
:107F900080E101D065CF982F8091C00085FFFCCF94
:107FA0009093C60008958091C00087FFFCCF809118
:107FB000C00084FD01C0A8958091C6000895E0E648
:107FC000F0E098E1908380830895EDDF803219F02E
:107FD00088E0F5DFFFCF84E1DECF1F93182FE3DFCA
:107FE0001150E9F7F2DF1F91089580E0E8DFEE27F6
:047FF000FF270994CA
:027FFE00040479
:0400000300007E007B
:00000001FF
